:020000040800F2
:1000000058070020610100088515000857110008F5
:1000100000000000000000000000000000000000E0
:10002000000000000000000000000000891500082A
:100030000000000000000000871500088B15000874
:1000400073010008730100087301000873010008C0
:100050007301000865030008A1030008E10300081C
:1000600073010008730100087301000873010008A0
:10007000730100087301000873010008B11500083E
:1000800065160008730100080000000073010008F5
:10009000951500087301000873010008730100083A
:1000A0007301000873010008730100087301000860
:1000B00073010008000000007301000800F002F85E
:1000C00000F03EF80CA030C8083824182D18671E20
:1000D000A246AB4654465D46AC4201D100F030F832
:1000E0007E460F3EB6460FCC0126334200D0FB1AA7
:1000F0003343A246AB4618479C1A0000BC1A0000C6
:10010000103A02D378C878C1FAD8520701D330C860
:1001100030C101D504680C60704700000023002442
:1001200000250026103A01D378C1FBD8520700D32E
:1001300030C100D50B6070471FB51FBD10B510BD95
:1001400000F04DF81146FFF7F7FF01F09DFA00F0BF
:1001500065F803B4FFF7F2FF03BC00F06BF8000092
:100160000748804707480047FEE7FEE7FEE7FEE74F
:10017000FEE7FEE704480549054A064B70470000C4
:1001800093150008BD000008580100205807002002
:10019000580300205803002001E004C0091F04296F
:1001A000FBD28B0701D50280801CC90700D00270EA
:1001B000704700290BD0C30702D00270401C491EB3
:1001C000022904D3830702D50280801C891EE3E73D
:1001D0000022EEE70022DFE7704770477047754660
:1001E00000F024F8AE46050069465346C008C0003A
:1001F000854618B020B5FFF7BDFF60BCB6460026A7
:100200000027C0C5C0C5C0C5C0C5C0C5C0C5C0C524
:10021000C0C5403D490849008D46704710B50446A9
:10022000C046C0462046FFF794FF10BD0048704707
:100230001000002001491820ABBEFEE72600020096
:100240007047B0B50C46054601F08AF8D02001F0A1
:10025000CDF8284601F0CAF8204601F0C7F801F0B1
:10026000A1F8B0BD10B501F07BF8D02001F0BEF8C8
:10027000022001F0BBF801F073F8D12001F0B6F8CC
:1002800000F06AFF044601F08DF8600607D40F20E5
:100290002040A106890F0A224A4310180FE0A00649
:1002A00000D50C340F2020403F2121400818302178
:1002B000214009090A224A438018182800D010BD9D
:1002C000002010BD10B501F04BF8D02001F08EF8E1
:1002D000012001F08BF801F043F8D12001F086F8FD
:1002E00000F03AFF0F21014000090A224243501852
:1002F000C4B201F057F8204610BD10B5044601F015
:100300002FF8D02001F072F8022001F06FF8092CCC
:1003100007D9CD206043C00A0A214143611A040174
:100320000C43E0B201F062F801F03CF810BD10B5EA
:10033000044601F015F8D02001F058F8012001F032
:1003400055F8092C07D9CD206043C00A0A21414342
:10035000611A04010C43E0B201F048F801F022F800
:1003600010BD000080B52A480178491CCAB2022A93
:1003700006D80170080607D0012000F051F880BDB2
:10038000002101700806F7D123480078FFF7CFFF5E
:1003900020480078FFF7B1FF012000F041F880BD50
:1003A00080B51B48007802280DD0012807D11948D4
:1003B0000178491CCAB2182A00D900210170042012
:1003C00000F02EF880BD14480178491CCAB23C2ABE
:1003D00000D900210170042000F022F880BDC04641
:1003E00080B50B480078012807D002280CD13C20AA
:1003F00009490A78002A05D105E0172005490A783D
:10040000002A00D0501E0870202000F009F880BD9E
:10041000C000002071000020700000207047000024
:1004200080B504490A68024202D00860FFF7F6FF6F
:1004300080BDC04614040140F0B58AB003900F6837
:10044000002F00D1C3E06348039A824201D0052007
:1004500000E00320009000231A461C4608910BE0A0
:100460003A433260079A641C0F683846E0409B1C90
:10047000121D002800D1AAE001260596A6403740AB
:10048000F1D00792032002469A400293D343496871
:100490000D4605406A1E012A0693049113D8019760
:1004A000039FB8681840089AD268029B9A4002439A
:1004B000BA60C806C00FA0407A68B2433E46019FAA
:1004C0000243726006E0032D039E029B02D10546A3
:1004D000079A1EE0F0680699084008998A689A40D1
:1004E0000243F260022D079A13D11C2010400F2105
:1004F0008140E2089200B218156A8D43089E316966
:10050000814029431162079A7068039E0325049075
:1005100005409D40306806990840284330600498A3
:100520008003800F08999ED05E490868059D284386
:1005300008600868284009900C2010400F22824073
:10054000032125468D430999244EA9599143AD199C
:100550000922D206039E96420CD0214A964206D02A
:10056000204A9642009A1C4E06D1022204E01A4EFE
:10057000059A01E00022184E82400A432A60B568BD
:10058000089801464068C2020FD53D43B560F56842
:1005900082020FD4BD43F560756882030FD4BD435A
:1005A00075603268C00310D55AE7BD43B560F56881
:1005B0008202EFD53D43F56075688203EFD53D4378
:1005C00075603268C00300D54AE7BA4349E70AB00C
:1005D000F0BDC046000C0048000401400800014086
:1005E000000400480008004800690840411E884196
:1005F0007047002A02D0182281507047282281506B
:1006000070470000054800687047C0461A480078E7
:1006100002490A68101808607047C046540100205B
:1006200080B58348016810220A430260032000F06D
:1006300005F800F023F8002080BDC04670B50446E0
:100640007D20C0000C4E317801F080F901468048D1
:10065000006801F07BF900F0F7FA0125032C08D8B7
:10066000002806D10025E84321462A4600F028F854
:100670007460284670BDC0460000002082B0094862
:100680000168012211430160016811400191019943
:10069000110742680A434260406808400090009891
:1006A00002B0704718100240002805D41F210840EE
:1006B00001218140014801607047C04600E100E02F
:1006C000002805D40322034693430A4A9A1803E0FC
:1006D0000C220240064BD2188007C00E8901C9B215
:1006E0008140FF238340106898430843106070479F
:1006F00014ED00E000E400E0F0B581B000284FD038
:1007000004464B4A1368012003408B4208D2136809
:100710000126B3430B431360126832408A4240D132
:10072000009121688A07434B11D54A0707D5072254
:100730001202404B1B6813433E4A13603D4B1A683C
:10074000F0239A43A36813433A4A1360394BC9070D
:100750002AD13749086801263040009A904205D9CD
:100760000868B04308600868C0071AD120784007BD
:1007700006D50720000219688143E0680843186025
:1007800019680C220A402D48082A18D18A02120F33
:100790002B4B9C5C274B9A6AC90332D42A4837E01A
:1007A0000126304601B0F0BD61681A1F022908D049
:1007B00001290BD1126892030646F2D50AE00446DD
:1007C00027E0126892010646EBD503E01268920713
:1007D0000646E6D518680326B04308431860FFF7BD
:1007E00011FF0746144D134B18680C210140606837
:1007F00080008142ADD0FFF705FFC01BA842F2D9AF
:10080000CFE70F210A400F49895C01F09FF8094B9F
:10081000444318680006000F0C49085CC4400C48AB
:1008200004600320FFF70AFF0026304601B0F0BD48
:1008300000200240041002408813000000127A00D9
:10084000521B0008621B000800093D00421B000803
:1008500008000020F0B587B004460120002C00D12C
:10086000EAE104902078C007F44E059426D0716820
:100870000C20014004291AD071680140082902D1D6
:100880007068C00313D4616801204704002900D1B7
:1008900084E1052900D198E1012900D199E1010401
:1008A00032688A43326081043068884394E130685A
:1008B000800303D56068002800D1BDE02078800760
:1008C0001AD570680007800F07D070680C210140AE
:1008D000082975D17068C00372D430688007059C00
:1008E00003D5E068012800D0A6E03068F8218843ED
:1008F0002169C90001433160059C2078000724D498
:100900002078400736D42078C00600D4B4E005989B
:100910004069411D00D1A3E0012800D0F4E0706BD4
:10092000042101437163706B012101437163FFF77F
:1009300069FE0546706B800700D595E0FFF762FE03
:10094000411B03200229F5D976E1706AE16900298B
:1009500060D0012108437062FFF754FE0546706ABB
:100960008007CDD4FFF74EFE401B0228F7D90320A5
:1009700007B0F0BD012003900107F0690840029024
:1009800006D1F0690843F061F069084006900698C6
:100990000191AB4F3868C00528D403980402386829
:1009A00020433860FFF72EFE0546386820421DD1EF
:1009B000FFF728FE401B6428F7D9032007B0F0BDDD
:1009C0003068059CE168002939D001210843306076
:1009D000FFF718FE05463068800786D4FFF712FE41
:1009E000401B0228F7D9032007B0F0BD05988068A6
:1009F000944F002800D19CE0052800D1AEE00128EA
:100A000000D1AFE0306A039988433062306A042134
:100A10008843AAE0012188437062FFF7F3FD054691
:100A2000706A800700D46BE7FFF7ECFD401B0228DB
:100A3000F6D9032007B0F0BD049807B0F0BD01213E
:100A400088433060FFF7DEFD05463068800700D43C
:100A500052E7FFF7D7FD411B03200229F5D9EBE050
:100A6000706B042188437063706BF821884305998B
:100A70008969C900014371630598046A002C1ED07E
:100A800070680C21014008291CD1012C049800D168
:100A9000D2E00120030471680B40F26A059D6C6A84
:100AA000A34200D0C8E00F231A40EC6AA24200D053
:100AB000C2E09A041140AA6A914200D0BCE0002032
:100AC00007B0F0BD01200206316804929143316005
:100AD0004706FFF797FD0546022C0BD1049C3068B2
:100AE000384200D188E0FFF78DFD411B0320022929
:100AF000F5D9A1E030683842E1D0FFF783FD411B12
:100B000003200229F6D997E0706B04210143716339
:100B1000706B012188437063FFF774FD0546706BAD
:100B20008007A9D5FFF76EFD411B03200229F6D9E6
:100B300082E0306A039988433062306A0421884336
:100B40003062FFF75FFD0546306A80071CD5FFF76E
:100B500059FD411B0320B942F6D96DE0306A0421EA
:100B600001433162306A039908433062FFF74AFD5E
:100B70000546306A800707D4FFF744FD401BB842A2
:100B8000F7D9032007B0F0BD02980028059C00D0DB
:100B9000B9E6F06901998843F061B4E6010432686E
:100BA0008A4332608004316881433160FFF72AFD57
:100BB0000546059C3068384200D17FE6FFF722FDEC
:100BC000411B03206429F5D936E0810432680A43C9
:100BD00032600104306808433060FFF713FD0546BA
:100BE0003068384200D069E6FFF70CFD401B6428EE
:100BF000F6D9032007B0F0BDF06A0F218843059AAB
:100C0000D16A0143F1623D20000471688143906A1A
:100C10000843516A01437160306820433060FFF738
:100C2000F1FC04463068384200D048E7FFF7EAFCA0
:100C3000011B03200229F5D907B0F0BD00100240C6
:100C40000070004088130000401E010E01D00120FA
:100C500070470749074A5060074803680B40032163
:100C600089075918016000209060072111607047C2
:100C7000FFFFFF0010E000E020ED00E0704770474C
:100C800010B53C22825C012A01D1022010BD02462F
:100C90003C3202235370006843687024A3430C68FD
:100CA0001C43836844607C4CA04207DC0124A407F9
:100CB000A04209D07B4CA04206D00AE0774CA0426B
:100CC00002D0774CA04204D18024A3434968194341
:100CD0008160002010700121517010BD70B5002896
:100CE00029D0044605463C356878002804D1002008
:100CF0002870204600F06AF80220687021680E68AB
:100D000001208307994205D0654A914202D0654A85
:100D1000914219D170229643A26832435E4EB1428D
:100D200016DD254B994208DC5D4B994218D05B4B90
:100D3000994215D03EE0012070BD204B99420FD062
:100D40001F4B99420CD035E03246534EB142E8DC9D
:100D5000994205D0534B994202D01A4B994229D15E
:100D600003231B029A432369134322463E32802603
:100D7000B343A6691E430E60E368CB6263688B626F
:100D8000114BCB180A26F341072B06D806469E4086
:100D9000E1231E4201D063690B6348611072107039
:100DA00050709070D070107150719071D0716870E7
:100DB000002070BD1346D8E7FF43014000480140C2
:100DC000004401400020004000D4FEBF10B584B0B4
:100DD00000683249884210D0324988421AD0012135
:100DE0008A07904228D1154802680A4302600068C9
:100DF0000840039003980F2416E0012000040F49D7
:100E0000091F0A6802430A600968014001910198BC
:100E1000142409E0094801680222114301600068B6
:100E20001040029002981024002120460A46FFF745
:100E300047FC2046FFF738FC04B010BD1C100240F0
:100E40003D21415C012912D101463D3102220A7047
:100E50000068C26801210A43C2600F4A904208DC60
:100E60008A0790420BD00F4A904208D00EE0012032
:100E700070470A4A904202D0094A904206D18268DD
:100E800007231340062B01D10020704702680A4354
:100E9000026000207047C046FF2B01400040014027
:100EA000002C014000040040F0B53C22825C012A85
:100EB00001D10220F0BD02463C3202235370504E55
:100EC0003346773B0468A0681840A0600D68002393
:100ED0004F2D1EDC1F2D35DD202D37D0302D35D088
:100EE000402D00D086E0206A256A0126B5432562A0
:100EF000A569F026B543CE6836012E43A6610A25C2
:100F0000A843496801432162A0684721014330207A
:100F100069E06F2D26DD01204703BD4240D000036C
:100F2000854218461AD0702D64D1A06830404D68B3
:100F30008E68C9682E43090231430143A160A0684D
:100F4000772139E0002D01D0102D53D1A0687021F8
:100F50008843054307202843A060184613700121E9
:100F60005170F0BD502D29D0602D43D11020C043C9
:100F7000256A054025620F252D03A669AE43CD687D
:100F80002D033543266AA561A025AE4349680901B2
:100F900031432162A16867250D430540A56024E027
:100FA000A56835404E688F68C968374309023943E0
:100FB0002943A1608003A168014315E0206A256AE6
:100FC0000126B5432562A569F026B543CE683601F2
:100FD0002E43A6610A25A843496801432162A068FF
:100FE0005721014320208143A1601846137001213D
:100FF0005170F0BD0120137001215170F0BDC04649
:10100000FF00FFFF7047B0B504468020C54320684D
:101010000169890717D5C168890714D529467E312A
:101020000161012121778069800703D02046FFF705
:10103000E9FF05E0204600F08AF8204600F088F835
:101040000020207720680169490718D5C168490741
:1010500015D529467C3101610221217780698005FF
:10106000800F03D02046FFF7CDFF05E0204600F0BB
:101070006EF8204600F06CF80020207720680169A7
:10108000090717D5C168090714D5294678310161C8
:1010900004212177C069800703D02046FFF7B2FF03
:1010A00005E0204600F053F8204600F051F80020FB
:1010B000207720680169C90618D5C168C90615D509
:1010C00029467031016108212177C0698005800FB0
:1010D00003D02046FFF796FF05E0204600F037F8E2
:1010E000204600F035F80020207720680169C90704
:1010F00009D0C168C90706D029467F310161204661
:1011000000F027F820680169090607D5C1680906BB
:1011100004D505612046FFF7B1FD20680169490645
:1011200009D5C168490606D52946403101612046E6
:1011300000F010F820680169890607D5C1688906A2
:1011400004D5603505612046FFF799FDB0BD7047B5
:10115000704770477047FEE7F0B58FB000240E94DB
:101160000D940C940B9480270A979F4D0AA928464A
:10117000FFF762F94026284631462246FFF739FA42
:101180000122099228463146FFF733FA00BF00BF1B
:1011900000BF00BF284608973946FFF725FA079099
:1011A000284631462246FFF724FA28463146099A56
:1011B000FFF71FFA00BF00BF00BF00BF2846394637
:1011C000FFF712FA0690284631462246FFF711FA39
:1011D00028463146099F3A46FFF70BFA00BF00BF89
:1011E00000BF00BF28460899FFF7FEF90590284682
:1011F00031462246FFF7FDF9284631463A46FFF7C9
:10120000F8F900BF00BF00BF00BF2846089F39465D
:10121000FFF7EAF90490284631462246FFF7E9F93C
:1012200028463146099AFFF7E4F900BF00BF00BF26
:1012300000BF28463946FFF7D7F9039028463146C4
:101240002246FFF7D6F928463146099F3A46FFF76E
:10125000D0F900BF00BF00BF00BF28460899FFF7C4
:10126000C3F90290284631462246FFF7C2F92846C4
:1012700031463A46FFF7BDF900BF00BF00BF00BFCF
:101280002846089F3946FFF7AFF9019028463146B6
:101290002246FFF7AEF928463146099AFFF7A9F929
:1012A00000BF00BF00BF00BF284639463D46FFF7DC
:1012B0009BF90090B24831462246FFF79AF90E9406
:1012C0000D94099F0C9711200B900A950AA9AC4820
:1012D000FFF7B2F8AA4829463A46FFF78AF9A84824
:1012E000054631462246FFF784F9284631463A46FC
:1012F000FFF77FF90698401E414241410798401E82
:10130000424242415000401880000599491E4A421D
:101310004A41510040180499491E4A424A418018E6
:1013200080000399491E4A424A41510040180299DF
:10133000491E4A424A41801880000199491E4A428A
:101340004A41510040180099491E4A424A418018BA
:10135000C0B200BF00BF00BF00BF0FB0F0BDC046AD
:10136000F0B581B0864C40250126204629463246FC
:10137000FFF73FF98027204639463246FFF739F913
:101380000026204639463246FFF733F920462946E3
:101390003246FFF72EF900BF00BF00BF00BF01B00B
:1013A000F0BDC046F0B581B0754C40250026204602
:1013B00029463246FFF71DF9802720463946324636
:1013C000FFF717F90126204629463246FFF711F9A3
:1013D000204639463246FFF70CF900BF00BF00BF78
:1013E00000BF01B0F0BDC04600040048F0B585B0B4
:1013F000C20907460390624E802102913046FFF7F2
:10140000F8F840250122304629461446FFF7F1F846
:1014100000BF00BF00BF00BF002204923046294633
:10142000FFF7E7F87806C20F3046029F3946FFF70C
:10143000E0F83046294601942246FFF7DAF800BF6B
:1014400000BF00BF00BF30462946049E3246FFF76A
:10145000D0F803988006C20F49483946FFF7C9F80B
:101460004748074629462246FFF7C3F800BF00BF9A
:1014700000BF00BF38463C4629463246FFF7B9F860
:10148000039FF806C20F20462646029C2146FFF71E
:10149000B0F830462946019E3246FFF7AAF800BF51
:1014A00000BF00BF00BF36482946049AFFF7A1F8E5
:1014B0003807C20F324807462146FFF79AF83846E8
:1014C00029463246FFF795F800BF00BF00BF00BFB6
:1014D00038463E462946049F3A46FFF78AF8039C61
:1014E0006007C20F3046029E3146FFF782F824485B
:1014F0002946019AFFF77DF800BF00BF00BF00BF7B
:101500001F4829463A46FFF774F8A007C20F1C4847
:1015100004463146FFF76DF820462946019F3A46BA
:10152000FFF767F800BF00BF00BF00BF2046294695
:10153000049E3246FFF75DF8039A3A40204602992E
:10154000FFF757F8204629463A46FFF752F800BF02
:1015500000BF00BF00BF204629463246FFF749F8CA
:10156000204629463A46FFF744F8204629463246A7
:10157000FFF73FF800BF00BF00BF00BF05B0F0BDE0
:1015800000040048FEE77047704780B5FFF73EF85B
:1015900080BD704780B52F484178491CCAB2012AE6
:1015A00000D900214170E248FFF72DFD80BDC04603
:1015B00070B5274CFF2020600920C0060026466138
:1015C000244DA9784A1CAA7003290DD879440979B9
:1015D00049008F44010D141F2978012922D169780F
:1015E00001291FD10220A8701D48FFF70CFD70BD16
:1015F00001229102FEF7FDFF174840781FE029788D
:10160000022916D16978012913D1AE701448FFF769
:10161000FAFC70BD01221103FEF7EBFFAE700E481D
:10162000C0780CE001225102FEF7E3FF0A4800787F
:1016300005E00122D102FEF7DCFF07488078400078
:101640000649085A20600648FFF7DDFC70BDC04619
:1016500014080048C000002072000020721B00081F
:101660007800002080B500F005F8B448FFF7CBFC07
:1016700080BDC04610B5FEF725FEAB4C2070FEF7CE
:10168000F1FD607010BDC04694B0FEF7C9FF08AE12
:10169000301D2C21FEF79EFD0024109410200C908C
:1016A00001250B95022008903046FFF7D3F800285B
:1016B00003D0EFF3108072B6FEE70794069405940A
:1016C0000720049004A82146FFF716F8002803D04D
:1016D000EFF3108072B6FEE70C94E9048F480268BD
:1016E0000A43026002680A4004920499690402688D
:1016F0000A43026002680A4004920499A90402683D
:101700000A4302600068084004900498844EFF2752
:10171000304639462A46FEF76CFF0920C006019084
:101720000F21490202912A46FEF763FF7D48C0213E
:1017300003912A46FEF75DFF0B940A9409950897DA
:1017400008AF30463946FEF777FE0A951120009023
:101750000004099025200890019E30463946FEF786
:101760006BFE0B940A94099502980890304639460E
:10177000FEF762FE0B940A94009809900398089073
:1017800068483946FEF758FE05263046214622466F
:10179000FEF796FF3046FEF787FF062630462146C5
:1017A0002246FEF78DFF3046FEF77EFF07263046C5
:1017B00021462246FEF784FF3046FEF775FF5A4F5A
:1017C0003C6231205949AA07BA60F9603C617861EE
:1017D000BC610B940A940994059404943E4608361F
:1017E0003046FFF77BFA002803D0EFF3108072B683
:1017F000FEE72D03089508A93046FFF755FB0028A2
:1018000003D0EFF3108072B6FEE704A93046FFF76D
:1018100037FA002803D0EFF3108072B6FEE7444891
:10182000C721444A444B036042608460C160046144
:10183000446184610B940A94099405940494FFF71D
:101840004DFA002803D0EFF3108072B6FEE708953A
:10185000374808A9FFF728FB002803D0EFF31080D2
:1018600072B6FEE7324804A9FFF70AFA002803D04F
:10187000EFF3108072B6FEE7304884613049314A98
:10188000314B036042608460C16004610B940A9430
:10189000099405940494FFF721FA002803D0EFF38C
:1018A000108072B6FEE70895244808A9FFF7FCFAF5
:1018B000002803D0EFF3108072B6FEE71F4804A99A
:1018C000FFF7DEF9002803D0EFF3108072B6FEE7D1
:1018D0003046FFF7B5FA1648FFF7B2FA0720102195
:1018E000FEF7AFFCFEF7EEFC3870FEF7BBFC78703D
:1018F000C1B2CD225143C90AB9703B78DCB254431E
:10190000E20A3A710A246143401AF8705443181BE2
:10191000787100BF00BF00BF00BFE3E714100240B2
:101920000008004800040048700000201F03000069
:10193000C40000203F1F0000004001400C010020B7
:101940001F4E0000BF5D00000004004043088B42B2
:101950001AD3002203098B4279D3030A8B425ED348
:10196000030B8B4242D3030C8B4227D30902FF2285
:1019700012BA030C8B4202D31212090203D0030BDA
:101980008B4233D31AE0D3E0411A8041401C7047A8
:1019900003460B4371D443088B42F5D3002203095D
:1019A0008B4254D3030A8B4239D3030B8B421DD392
:1019B000030C8B4202D394466EE0090AC30B8B42A0
:1019C00001D3CB03C01A5241830B8B4201D38B034B
:1019D000C01A5241430B8B4201D34B03C01A5241F0
:1019E000030B8B4201D30B03C01A5241C30A8B4233
:1019F00001D3CB02C01A5241830A8B4201D38B021E
:101A0000C01A5241430A8B4201D34B02C01A5241C1
:101A1000030A8B4201D30B02C01A5241CDD2C30933
:101A20008B4201D3CB01C01A524183098B4201D3AF
:101A30008B01C01A524143098B4201D34B01C01A9A
:101A4000524103098B4201D30B01C01A5241C30812
:101A50008B4201D3CB00C01A524183088B4201D381
:101A60008B00C01A524143088B4201D34B00C01A6D
:101A70005241411A524110007047CA0F00D04942EA
:101A8000031000D34042534000229C4603098B427E
:101A90002DD3030A8B4212D38901FC2212BA030A06
:101AA0008B420CD3890192118B4208D38901921188
:101AB0008B4204D3890137D0921100E08909C30910
:101AC0008B4201D3CB01C01A524183098B4201D30F
:101AD0008B01C01A524143098B4201D34B01C01AFA
:101AE000524103098B4201D30B01C01A5241C30872
:101AF0008B4201D3CB00C01A524183088B4201D3E1
:101B00008B00C01A5241D9D243088B4201D34B00FB
:101B1000C01A5241411A00D2014652411046634652
:101B20005B1000D34042704763465B1000D34042D5
:101B300001B50021004201D0C9430846C046C04655
:101B400002BD0000000000000000010203040607BF
:101B5000080902030405060708090A0B0C0D0E0FFD
:101B600010100102030405060708090A0B0C0D0EEC
:101B70000F10C000F900A400B0009900920082008C
:101B8000F8008000900088008300C600A100860055
:101B90008E000000B81B00080000002010000000AC
:101BA00000010008C81B00081000002048070000C2
:101BB0001C010008000000000100000004000000FB
:081BC00000127A000000000091
:04000005080000BD32
:00000001FF
