:020000040800F2
:10000000580700206101000875200008B51B000892
:1000100000000000000000000000000000000000E0
:100020000000000000000000000000007B2000082D
:10003000000000000000000079200008CD2000082A
:1000400073010008730100087301000873010008C0
:1000500073010008450600088506000873010008C2
:1000600073010008730100087301000873010008A0
:10007000730100087301000873010008592100088A
:1000800079220008730100080000000073010008D5
:100090003121000873010008730100087301000892
:1000A0007301000873010008730100087301000860
:1000B00073010008000000007301000800F002F85E
:1000C00000F03EF80CA030C8083824182D18671E20
:1000D000A246AB4654465D46AC4201D100F030F832
:1000E0007E460F3EB6460FCC0126334200D0FB1AA7
:1000F0003343A246AB461847D0250000F025000048
:10010000103A02D378C878C1FAD8520701D330C860
:1001100030C101D504680C60704700000023002442
:1001200000250026103A01D378C1FBD8520700D32E
:1001300030C100D50B6070471FB51FBD10B510BD95
:1001400000F0A3F91146FFF7F7FF02F03DFA00F0C7
:10015000BBF903B4FFF7F2FF03BC00F0C1F90000E4
:100160000748804707480047FEE7FEE7FEE7FEE74F
:10017000FEE7FEE704480549054A064B70470000C4
:100180002F210008BD00000858010020580700205A
:1001900058030020580300204343514330B55C18F6
:1001A000010C130C0D4692B25D4380B251432C19E1
:1001B000054655430A0C09044D1962415843010C88
:1001C00000044019514130BDFEB5044610460D46AD
:1001D000184373D0A6468C460020A41A01469D41C0
:1001E00067D36646002701243D46B61A9D4102D3D7
:1001F00013463A462124654676462F04360C3E4384
:100200002D0CB61A9D4104D3150C1B042B4312046C
:100210001034654676462F06360A3E432D0AB61A36
:100220009D4104D3150E1B022B4312020834654670
:1002300076462F0736093E432D09B61A9D4104D351
:10024000150F1B012B431201241D65467646AF078F
:10025000B6083E43AD08B61A9D4104D3950F9B00E6
:100260002B439200A41C65467646EF0776083E4372
:100270006D08B61A9D411AD392185B41641C16E0B2
:100280000018764665464941B71A9D410191009094
:1002900009D36046B11A98418E4684460098019968
:1002A0000025401C6941DD0752082A435B08641E93
:1002B000E6D57246634603B0F0BDFFE7204628430B
:1002C00007D00020C0430146C046C04622462B4608
:1002D000F1E700200146F7E701E004C0091F042907
:1002E000FBD28B0701D50280801CC90700D00270A9
:1002F000704700290BD0C30702D00270401C491E72
:10030000022904D3830702D50280801C891EE3E7FB
:100310000022EEE70022DFE7002203098B422CD304
:10032000030A8B4211D300239C464EE003460B4345
:100330003CD4002243088B4231D303098B421CD3A7
:10034000030A8B4201D394463FE0C3098B4201D399
:10035000CB01C01A524183098B4201D38B01C01AD1
:10036000524143098B4201D34B01C01A5241030948
:100370008B4201D30B01C01A5241C3088B4201D3F7
:10038000CB00C01A524183088B4201D38B00C01AA4
:10039000524143088B4201D34B00C01A5241411ACB
:1003A00000D201465241104670475DE0CA0F00D0AE
:1003B0004942031000D3404253409C4600220309A7
:1003C0008B422DD3030A8B4212D38901FC2212BA2D
:1003D000030A8B420CD3890192118B4208D3890105
:1003E00092118B4204D389013AD0921100E089091D
:1003F000C3098B4201D3CB01C01A524183098B42FE
:1004000001D38B01C01A524143098B4201D34B01E6
:10041000C01A524103098B4201D30B01C01A524149
:10042000C3088B4201D3CB00C01A524183088B42D0
:1004300001D38B00C01A5241D9D243088B4201D359
:100440004B00C01A5241411A00D201465241104697
:1004500063465B1001D34042002B00D549427047F0
:1004600063465B1000D3404201B50549002802DC19
:10047000491C084000E00846C046C04602BD00BF17
:10048000FFFFFF7F704770477047754600F024F804
:10049000AE46050069465346C008C000854618B000
:1004A00020B5FFF767FE60BCB64600260027C0C532
:1004B000C0C5C0C5C0C5C0C5C0C5C0C5C0C5403D1C
:1004C000490849008D46704710B50446C046C046ED
:1004D0002046FFF73EFE10BD004870471000002088
:1004E00001491820ABBEFEE726000200704780B528
:1004F00084B003A90091087001F0E0FBD02001F066
:1005000021FC0098007801F01DFC01F0D7FBD12000
:1005100001F018FC01F050FB02A90191087001F0F4
:10052000EFFB0198007804B080BD80B584B003AAC9
:100530000092107002A80190017001F0BFFBD02062
:1005400001F000FC0098007801F0FCFB01980078B5
:1005500001F0F8FB01F0D4FB04B080BD80B584B09D
:100560000220FFF7C4FF014603A80170007840068F
:10057000002822D5FFE703A800788006002805D5CB
:10058000FFE703980C3003A90870FFE703A8029067
:1005900001783F2211400170007801F0DBFF024634
:1005A00002980399891801700078182804D1FFE790
:1005B00003A900200870FFE70BE003A80190017871
:1005C0003F2211400170007801F0C4FF01990870CA
:1005D000FFE703A8007804B080BD80B582B0012099
:1005E000FFF785FF014601A800900170007801F037
:1005F000B1FF014600980170007802B080BD80B55F
:1006000082B0014601A80170007801F0B4FF0146F4
:100610006846017001780220FFF787FF02B080BDB5
:1006200080B582B0014601A80170007801F0A3FFF7
:1006300001466846017001780120FFF776FF02B09D
:1006400080BD000080B524480178491C0170007805
:10065000032804DBFFE7204900200870FFE71E485D
:100660000078002809D1FFE71C480078FFF7D8FF81
:100670001B480078FFF7C3FFFFE7012000F03EF8BA
:1006800080BDC04680B51448007801280DD1FFE731
:1006900013480178491C01700078192804DBFFE732
:1006A0000F4900200870FFE712E00B48007802288D
:1006B0000DD1FFE709480178491C017000783D28F9
:1006C00004DBFFE7054900200870FFE7FFE7FFE7CD
:1006D000042000F013F880BD5101002050010020DB
:1006E0007600002081B0EFF3108072B60090FFE733
:1006F000FEE781B06946088001B0704780B582B0DE
:1007000001A90880074800680988084208D0FFE767
:1007100001A80188034A11600088FFF7EAFFFFE79C
:1007200002B080BD140401408BB00A9009910020F2
:100730000890FFE7099800680899C840002800D190
:1007400052E109980068089A0121914008400790F9
:100750000798002800D143E1099840680321084028
:10076000012807D0FFE709984068032108400228C4
:100770002CD1FFE70A988068069008984000032172
:1007800081400698884306900998C16808984000FF
:10079000814006980843069006980A9988600A984E
:1007A0004068069008980121814006988843069089
:1007B000099840681021084001090898814006986E
:1007C0000843069006980A994860FFE70998406830
:1007D00003210840032816D0FFE70A98C068069056
:1007E00008984000032181400698884306900998A4
:1007F0008168089840008140069808430690069852
:100800000A99C860FFE70998406803210840022858
:1008100020D1FFE70A980899C90889004018006AA2
:10082000069008984007C00E0F2181400698884323
:1008300006900998016908984007C00E8140069803
:100840000843069006980A99089AD20892008918D7
:100850000862FFE70A9800680690089841000320A4
:1008600002468A40069991430691099949680140D8
:1008700008984000814006980843069006980A9917
:100880000860099880798007002800D1A7E0FFE779
:10089000AC48026801210A430260006808400590E4
:1008A0000598FFE70898032188435049405806906F
:1008B00008988007000F0F21814006988843069012
:1008C0000A980921C906884203D1FFE70020049055
:1008D00022E00A984649884203D1FFE701200390AD
:1008E00017E00A984349884203D1FFE702200290AB
:1008F0000CE00A99404A032005230093914201909D
:1009000001D00098019001980290FFE702980390AF
:10091000FFE703980490FFE7049908988007000F09
:10092000814006980843069006980899032291434F
:100930002E4A8850314800680690079906988843E7
:10094000069009988079C006002805D5FFE7079929
:10095000069808430690FFE706982849086028484B
:100960000068069007990698884306900998807950
:100970008006002805D5FFE70799069808430690EA
:10098000FFE706981E4908601E4800680690079910
:10099000069888430690099880798007002805D535
:1009A000FFE70799069808430690FFE70698154960
:1009B00008601548006806900799069888430690D5
:1009C00009988079C007002805D0FFE707990698A5
:1009D00008430690FFE706980B490860FFE7FFE72A
:1009E0000898401C0890A5E60BB07047080001402D
:1009F0000004004800080048000C004808040140BA
:100A00000C040140040401400004014084B0009142
:100A100001460098039102A908800398006909889B
:100A2000084204D0FFE701A90120087003E001A9F2
:100A300000200870FFE701A8007804B0704783B079
:100A4000029001A80180684602700078002805D055
:100A5000FFE701A800880299886104E001A80088E6
:100A600002998862FFE703B07047000005480068FC
:100A70007047C04624480278024908688018086018
:100A80007047C0465401002080B5A949086810226B
:100A900010430860032000F005F800F039F800204A
:100AA00080BDC04680B584B00290A4480068019023
:100AB000154801787D20C000FFF72EFC0146019803
:100AC000FFF72AFC00F0EEFC002804D0FFE703A9A2
:100AD0000120087014E00298032809D8FFE7029962
:100AE0000022D04300F03DF802980849086003E076
:100AF00003A90120087003E003A900200870FFE7A4
:100B000003A8007804B080BD040000200800002085
:100B100082B0FFE70B48026801210A4302600068C7
:100B2000084001900198FFE7FFE7074802680121AC
:100B300009070A4302600068084000900098FFE738
:100B400002B07047181002401C10024080B582B0FD
:100B5000014601A801700021405601F0A3FC02B03B
:100B600080BD80B584B0034603A803700291019252
:100B700000214056029901F0ABFC04B080BD00009A
:100B800080B584B0029001910298002804D1FFE75B
:100B900003A901200870C7E001986549096801228E
:100BA0001140884212D9FFE76148026801218A4357
:100BB000019B1A430260006808400199884204D0F2
:100BC000FFE703A901200870AEE0FFE70298007874
:100BD0008007002816D5FFE7029800784007002814
:100BE00007D5FFE77D490868072212021043086015
:100BF000FFE77A490868F0229043029A926810430E
:100C00000860FFE702980078C007002850D0FFE78F
:100C10000298406801280BD1FFE74648006880032E
:100C2000002804D4FFE703A9012008707CE01BE042
:100C30000298406802280BD1FFE73E480068800117
:100C4000002804D4FFE703A9012008706CE00AE043
:100C5000384800688007002804D4FFE703A9012072
:100C6000087061E0FFE7FFE75C49086803229043F2
:100C7000029A526810430860FFF7F8FE0090FFE701
:100C8000564800680C21084002994968890088424A
:100C90000DD0FFE7FFF7EAFE0099401A2849884285
:100CA00004D3FFE703A9032008703DE0E8E7FFE76E
:100CB00001981F49096801221140884212D2FFE7BA
:100CC0001B48026801218A43019B1A4302600068A5
:100CD00008400199884204D0FFE703A90120087069
:100CE00022E0FFE702980078400700280AD5FFE7D6
:100CF0003A490868072212029043029AD2681043C8
:100D00000860FFE700F01EF834490968C9B20A0913
:100D10000949895CC840094908600320FFF7C2FE01
:100D200003A900200870FFE703A8007804B080BD85
:100D30000020024000100240782600080000002039
:100D40008913000080B586B00020059004900390C0
:100D50000290019021480068059005980C210840F8
:100D60000090002832D0FFE70098042804D0FFE765
:100D70000098082803D02AE01D4801902AE0059930
:100D80000F20820411408A0C1549895C0291154993
:100D9000096801401448405C049005A88078C007A9
:100DA00000280BD0FFE7049A114800231946FFF7EB
:100DB0000BFA029AFFF7F0F9039004E002990B484E
:100DC00048430390FFE70398019003E0FFE70848DA
:100DD0000190FFE7019806B080BDC04604100240B4
:100DE000882600082C1002409826000800093D00C3
:100DF00000127A0080B588B006900698002804D1C9
:100E0000FFE707A90120087036E306980078C007BD
:100E1000002800D193E0FE4800680C210840042817
:100E20000DD0FFE7FA4800680C210840082816D1C9
:100E3000FFE7F7480068C003002810D5FFE7F74830
:100E400000688003002809D5FFE70698406800285D
:100E500004D1FFE707A9012008700DE36EE0FFE76A
:100E600006984068012807D1FFE7EC49086801228D
:100E70001204104308602CE00698406800280BD14B
:100E8000FFE7E649086801221304984308600868F0
:100E90009204904308601BE00698406805280BD137
:100EA000FFE7DE49086801229304184308600868D8
:100EB0001204104308600AE0D849086801221304AC
:100EC000984308600868920490430860FFE7FFE7D2
:100ED000FFE7FFE706984068002817D0FFE7FFF715
:100EE000C5FD0590FFE7CD480068800300280CD4BD
:100EF000FFE7FFF7BBFD0599401A652804D3FFE71C
:100F000007A903200870B7E2EDE716E0FFF7AEFD92
:100F10000590FFE7C1480068800300280CD5FFE773
:100F2000FFF7A4FD0599401A652804D3FFE707A938
:100F300003200870A0E2EDE7FFE7FFE7FFE7069870
:100F400000788007002876D5FFE7B14800680007E1
:100F5000800F00280DD0FFE7AD4800680C21084045
:100F6000082820D1FFE7AA480068C00300281AD447
:100F7000FFE7AA4800688007002809D5FFE7069820
:100F8000C068012804D0FFE707A90120087073E2B8
:100F9000A2490868F8229043069A1269D2001043C9
:100FA0000860FFE746E00698C068002825D0FFE704
:100FB0009A490868012210430860FFF757FD059021
:100FC000FFE796480068800700280CD4FFE7FFF78A
:100FD0004DFD0599401A032804D3FFE707A9032014
:100FE000087049E2EDE78D490868F8229043069AB7
:100FF0001269D200104308601BE08849086801228A
:1010000090430860FFF732FD0590FFE783480068D2
:10101000800700280CD5FFE7FFF728FD0599401A47
:10102000032804D3FFE707A90320087024E2EDE7B3
:10103000FFE7FFE7FFE706980078000700283ED5A6
:10104000FFE70698C06900281CD0FFE774490868CC
:10105000012210430860FFF709FD0590FFE7704883
:101060000068800700280CD4FFE7FFF7FFFC059914
:10107000401A032804D3FFE707A903200870FBE107
:10108000EDE71BE066490868012290430860FFF71E
:10109000EDFC0590FFE7FC480068800700280CD5B0
:1010A000FFE7FFF7E3FC0599401A032804D3FFE7A5
:1010B00007A903200870DFE1EDE7FFE7FFE70698E7
:1010C00000784007002800D4BBE002A90020087087
:1010D000EE480068C000002810D4FFE7FFE7EB48A7
:1010E0000268012109070A43026000680840019074
:1010F0000198FFE702A901200870FFE7E4480068B3
:10110000C00500281DD4FFE7E1490868012212024A
:1011100010430860FFF7AAFC0590FFE7DC48006871
:10112000C00500280CD4FFE7FFF7A0FC0599401A82
:10113000652804D3FFE707A9032008709CE1EDE7C9
:10114000FFE7FFE706988068012806D1FFE7D1494D
:10115000086801221043086029E00698806800288A
:101160000AD1FFE7CB49086801229043086008686C
:1011700004229043086019E00698806805280AD187
:10118000FFE7C44908680422104308600868012288
:101190001043086009E0BF490868012290430860D5
:1011A0000868042290430860FFE7FFE7FFE7FFE7D6
:1011B00006988068002818D0FFE7FFF757FC0590D5
:1011C000FFE7B4480068800700280DD4FFE7FFF769
:1011D0004DFC0599401AB049884204D3FFE707A99E
:1011E0000320087048E1ECE71EE0FFF73FFC0590A4
:1011F000FFE7A84800688007002814D5FFE7FFF73D
:1012000035FC0599401AA44988420BD302E0C04638
:101210000410024007A9032008702DE100100240CD
:1012200024100240E5E7FFE702A80078012807D173
:10123000FFE7964908680122120790430860FFE71C
:10124000FFE706980078C006002864D5FFE70698F7
:101250004069012829D1FFE790490868042210431A
:1012600008600868012210430860FFF7FFFB059043
:10127000FFE78A480068800700280CD4FFE7FFF7E3
:10128000F5FB0599401A032804D3FFE707A90320BB
:101290000870F1E0EDE781490868F8229043069A6A
:1012A0009269D2001043086034E006984069401DFE
:1012B00000280ED1FFE779490868042290430860AE
:1012C0000868F8229043069A9269D2001043086099
:1012D0001FE0724908680422104308600868012270
:1012E00090430860FFF7C2FB0590FFE76B4800687A
:1012F000800700280CD5FFE7FFF7B8FB0599401AD7
:10130000032804D3FFE707A903200870B4E0EDE742
:10131000FFE7FFE7FFE70698006A002800D1A7E093
:10132000574800680C210840082871D0FFE706984C
:10133000006A02284ED1FFE75249086801221206CE
:1013400090430860FFF792FB0590FFE74D48006867
:10135000800100280CD5FFE7FFF788FB0599401AAC
:10136000032804D3FFE707A90320087084E0EDE712
:10137000FFE74B4908680F229043069AD26A104350
:1013800008603F4908683D2212049043069B9A6A10
:101390005B6A1A4310430860FFE73A490868012274
:1013A000120610430860FFF761FB0590FFE7354820
:1013B0000068800100280CD4FFE7FFF757FB059970
:1013C000401A032804D3FFE707A90320087053E05D
:1013D000EDE71CE02B4908680122120690430860E3
:1013E000FFF744FB0590FFE72648006880010028CE
:1013F0000CD5FFE7FFF73AFB0599401A032804D301
:10140000FFE707A90320087036E0EDE7FFE72EE0CD
:101410000698006A012804D1FFE707A90120087097
:101420002AE01748006804901D480068039004985B
:101430000121090408400699496A884211D1FFE751
:1014400003980F2108400699C96A884209D1FFE72D
:1014500004980F21890408400699896A884204D0BB
:10146000FFE707A90120087006E0FFE7FFE7FFE7B5
:1014700007A900200870FFE707A8007808B080BD22
:101480000410024000100240241002401C100240D0
:101490000070004020100240891300003410024008
:1014A0002C10024080B582B00190019800F0E6FD5A
:1014B00002B080BD81B0009001B0704781B0009053
:1014C00001B0704785B003900291FFE703983C217B
:1014D000405C012804D1FFE704A90220087053E012
:1014E00003993C2201208854FFE7FFE703993D223E
:1014F00002208854039800684068019003980068AF
:1015000080680090019870218843019002980168DA
:10151000019808430190019803990968486003986D
:1015200000689A49884213D0FFE7039800680121B8
:10153000890788420CD0FFE70398006894498842E5
:1015400006D0FFE703980068924988420ED1FFE772
:1015500000988021884300900298416800980843D1
:1015600000900098039909688860FFE703993D227D
:1015700001208854FFE703993C2200208854FFE7AC
:1015800004A900200870FFE704A8007805B07047A0
:1015900080B582B000900098002804D1FFE701A92F
:1015A000012008703FE000983D21405C002808D1F0
:1015B000FFE700993C2200208854009800F038F89A
:1015C000FFE700993D2202208854009901C900F0EC
:1015D0005BFE0099462201208854FFE700993E22D5
:1015E0000120885400993F22885400994022885451
:1015F000009941228854FFE7FFE700994222012029
:1016000088540099432288540099442288540099B0
:1016100045228854FFE700993D220120885401A902
:1016200000200870FFE701A8007802B080BD00002C
:1016300080B588B007900798006801218907884223
:1016400015D1FFE7FFE72848026801210A4302603D
:101650000068084006900698FFE70F2003900022DC
:101660001146FFF77EFA0398FFF770FA38E0079803
:1016700000684749884215D1FFE7FFE71A4802682A
:1016800002210A4302600068084005900598FFE7C0
:101690001020029000221146FFF763FA0298FFF72C
:1016A00055FA1CE0079800683A49884216D1FFE7CE
:1016B000FFE70C480268012109040A430260006840
:1016C000084004900498FFE714200190002211467E
:1016D000FFF747FA0198FFF739FAFFE7FFE7FFE75F
:1016E00008B080BD181002401C10024083B0019069
:1016F00001983D21405C012804D0FFE702A90120A8
:1017000008703FE001993D22022088540198016849
:10171000C86801221043C860019800681B498842CC
:1017200013D0FFE7019800680121890788420CD097
:10173000FFE7019800681649884206D0FFE7019844
:1017400000681449884212D1FFE701980068806858
:101750000721084000900098062807D0FFE701986D
:1017600001680868012210430860FFE706E001985D
:1017700001680868012210430860FFE702A9002001
:101780000870FFE702A8007803B07047002C014002
:10179000000400400040014080B586B004900391F1
:1017A00002A900200870FFE704983C21405C012852
:1017B00004D1FFE705A902200870AEE004993C229D
:1017C00001208854FFE7FFE704993D220220885456
:1017D00004980068806801900198772188430190FF
:1017E0000198FF2109028843019001980499096832
:1017F0008860039800680090002875D0FFE7009883
:10180000102871D0FFE7009820286DD0FFE70098DE
:10181000302869D0FFE70098402858D0FFE70098AB
:1018200050283AD0FFE70098602843D0FFE700989F
:1018300070280DD0FFE7009801210903884206D0E7
:10184000FFE7009801214903884216D053E056E093
:1018500004980068039B99685A68DB6800F0A0FD53
:1018600004980068806801900198772108430190EE
:10187000019804990968886041E004980068039B16
:1018800099685A68DB6800F08BFD049801688868E5
:10189000012292031043886031E004980068039AA3
:1018A0005168D26800F0ACFD04980068502100F047
:1018B00092FD24E004980068039A5168D26800F011
:1018C000C7FD04980068602100F085FD17E00498CA
:1018D0000068039A5168D26800F092FD049800688D
:1018E000402100F078FD0AE0049800680399096837
:1018F00000F071FD03E002A901200870FFE70499E0
:101900003D2201208854FFE704993C22002088549E
:10191000FFE7029805A90870FFE705A8007806B060
:1019200080BD81B0009001B0704780B582B0019059
:10193000019800680069022108404008002828D06A
:10194000FFE701980068C0680221084040080028AD
:101950001ED0FFE7019801680220C0430861019989
:10196000012008770198006880698007002804D06A
:10197000FFE70198FFF7D5FF06E0019800F00AF9AC
:10198000019800F00BF9FFE7019900200877FFE7C5
:10199000FFE70198006800690421084080080028DA
:1019A00029D0FFE701980068C0680421084080083A
:1019B00000281FD0FFE7019801680420C043086198
:1019C0000199022008770198006880698005800FDE
:1019D000002804D0FFE70198FFF7A3FF06E0019875
:1019E00000F0D8F8019800F0D9F8FFE7019900203D
:1019F0000877FFE7FFE701980068006908210840C1
:101A0000C008002828D0FFE701980068C0680821B6
:101A10000840C00800281ED0FFE701980168082090
:101A2000C043086101990420087701980068C069E3
:101A30008007002804D0FFE70198FFF772FF06E057
:101A4000019800F0A7F8019800F0A8F8FFE70199C5
:101A500000200877FFE7FFE7019800680069102180
:101A600008400009002829D0FFE701980068C068F5
:101A700010210840000900281FD0FFE701980168E5
:101A80001020C04308610199082008770198006878
:101A9000C0698005800F002804D0FFE70198FFF798
:101AA00040FF06E0019800F075F8019800F076F824
:101AB000FFE7019900200877FFE7FFE7019800683A
:101AC0000069C007002811D0FFE701980068C068CE
:101AD000C007002809D0FFE7019801680120C04332
:101AE0000861019800F05EF8FFE7FFE701980068E1
:101AF0000069C0B2C009002812D0FFE70198006851
:101B0000C068C0B2C009002809D0FFE70198016889
:101B10008020C04308610198FFF7CCFCFFE7FFE796
:101B2000019800680069402108408009002813D00E
:101B3000FFE701980068C06840210840800900283C
:101B400009D0FFE7019801684020C043086101986F
:101B500000F02CF8FFE7FFE70198006800692021FA
:101B600008404009002813D0FFE701980068C068CA
:101B7000202108404009002809D0FFE701980168AA
:101B80002020C04308610198FFF798FCFFE7FFE7BA
:101B900002B080BD81B0009001B0704781B000906C
:101BA00001B0704781B0009001B0704781B00090E3
:101BB00001B07047FFE7FEE780B58AB009A906913A
:101BC00000200790087008A90870012000F054F860
:101BD000069907980870FFE709A80078072827DC0E
:101BE000FFE7C9480590402104910022FEF727FF36
:101BF000049905980122FEF722FF059800BF00BF57
:101C000000BF00BF0899490008AA11708021FEF7A3
:101C1000FDFE012806D1FFE708980121084308A925
:101C20000870FFE7FFE70998401C09A90870D3E78F
:101C3000B54801904021029100220092FEF7FFFE7C
:101C4000009800F019F80198802101220392FEF714
:101C5000F6FE009A01980299FEF7F1FE01980299AA
:101C6000039AFEF7ECFE00BF00BF00BF00BF08A84C
:101C700000780AB080BDC04680B586B0014605A890
:101C80000170002104910391029101910091802142
:101C900000910078012804D1FFE700200190029014
:101CA00006E0112001900120029000200390FFE740
:101CB00095486946FEF738FD06B080BD80B586B010
:101CC000914803904021049101220192FEF7B7FE52
:101CD000019A039880210291FEF7B1FE02990398C0
:101CE00000220592FEF7ABFE03980499059AFEF7D1
:101CF000A6FE00BF00BF00BF00BF06B080BDC0464B
:101D000080B586B080480390402102910022019264
:101D1000FEF795FE019A039880210491FEF78FFE4D
:101D20000299039801220592FEF789FE039804990F
:101D3000059AFEF784FE00BF00BF00BF00BF06B0DB
:101D400080BDC04680B588B007A9087006A90020EC
:101D50000870079A05AB1A700870FFE706A80078AC
:101D600007282CDCFFE705A800780006002806D528
:101D7000FFE7654880210122FEF761FE05E0624829
:101D800080210022FEF75BFEFFE70598400005A9D1
:101D900008705D480390402104910122FEF74FFE38
:101DA0000398049900BF00BF00BF00BF0022FEF7E8
:101DB00046FEFFE70698401C06A90870CEE7524889
:101DC0000190402102910122FEF739FE019802990B
:101DD0000022FEF734FE00BF00BF00BF00BF08B006
:101DE00080BDC046B0B592B00020119010900F9009
:101DF0000E900D90FFE7424802680121C9040A4392
:101E00000260006808400C900C98FFE7FFE73C4830
:101E10000268012149040A430260006808400B90EF
:101E20000B98FFE7FFE736480268012189040A435F
:101E30000260006808400A900A98FFE73148019064
:101E4000FF21009101220292FEF7F9FD029A09207A
:101E5000C00603900F214D022946FEF7F0FD029ABD
:101E600029480590C0242146FEF7E9FD009A019813
:101E700002990D920E91002108910F9110910DA9D8
:101E80000691FEF751FC029A0398069905230793E1
:101E90000D93112304931B040E930F92FEF744FC41
:101EA00003980699089A20230D930E920F92FEF73D
:101EB0003BFC029B03980699089A0D950E930F928E
:101EC0001092FEF731FC049B05980699089A0D9430
:101ED0000E930F921092FEF727FC0798089A11466E
:101EE000FEF73FFE0798FEF731FE089A062009909C
:101EF0001146FEF736FE0998FEF728FE12B0B0BD77
:101F000014100240000800480004004880B588B062
:101F1000002100910791069105910491039102918E
:101F20008C480190164A0260504A42608160C72284
:101F3000C260016141618161FFF72AFB002803D083
:101F4000FFE7FEF7CFFBFFE7012000030490814885
:101F500004A9FFF721FC002803D0FFE7FEF7C2FB2E
:101F6000FFE70020029003907A4802A9FFF7AAFA3F
:101F7000002803D0FFE7FEF7B5FBFFE708B080BD00
:101F80000040014080B588B0002101910791069181
:101F90000591049103910291B648012292070260D3
:101FA000154A426081603122C26001618161FFF7A0
:101FB000EFFA002803D0FFE7FEF794FBFFE70120CC
:101FC00000030490AB4804A9FFF7E6FB002803D008
:101FD000FFE7FEF787FBFFE7002002900390A5488C
:101FE00002A9FFF76FFA002803D0FFE7FEF77AFB9C
:101FF000FFE708B080BDC0461F03000080B588B071
:10200000002101910791069105910491039102919C
:102010009C48DE4A0260154A42608160144AC260F0
:1020200001618161FFF7B4FA002803D0FFE7FEF7F2
:1020300059FBFFE7012000030490924804A9FFF731
:10204000ABFB002803D0FFE7FEF74CFBFFE70020C7
:10205000029003908B4802A9FFF734FA002803D0BE
:10206000FFE7FEF73FFBFFE708B080BD3F1F000022
:10207000E7030000FFE7FEE77047704780B584B0D4
:1020800002900298401E000E002803D0FFE70120B6
:10209000039011E00298401E094908600020019059
:1020A000C043032100F014FA019806490860064A6B
:1020B000072111600390FFE7039804B080BDC0467C
:1020C00014E000E018E000E010E000E080B5FEF76A
:1020D000D1FC80BD80B592B006A801903021FEF7FA
:1020E00019F90198002105910491039102910222AE
:1020F00006920122099210220A920E91FEF77AFEB0
:10210000002803D0FFE7FEF7EDFAFFE70720029073
:10211000002103910491059102A8FEF731FD0028EA
:1021200003D0FFE7FEF7DEFAFFE712B080BD70478D
:1021300080B54F480178491C01700078022804DB03
:10214000FFE74B4900200870FFE70248FFF7EDFB6F
:1021500080BDC0467800002080B53F49FF20086060
:102160003E49002008603E480178491C0170007813
:1021700001281ED1FFE73D48007801280AD1FFE77A
:102180003B480078012805D1FFE735490878401C15
:1021900008700DE00920C00601225102FEF74FFC35
:1021A0003048007841003048405A2B490860FFE72A
:1021B0004DE02B48007802280ED1FFE70920C00629
:1021C00001229102FEF73BFC264840784100264858
:1021D000405A2149086039E02148007803281DD180
:1021E000FFE722480078022809D1FFE7204800785D
:1021F000012804D1FFE71A49002008700DE00920EA
:10220000C0060122D102FEF71AFC16488078410070
:102210001548405A10490860FFE716E0104800785A
:10222000042811D1FFE70920C00601221103FEF79F
:1022300006FC0C48C07841000B48405A064908602B
:10224000074900200870FFE7FFE7FFE7FFE7F048D6
:10225000FFF76BFB80BDC04614080048140000481F
:102260007100002072000020A82600085101002003
:1022700070000020C000002080B5E648FFF755FB45
:1022800080BDC0460801002083B0029001910298F1
:102290000068009002983C4988420BD0FFE7029802
:1022A00001218907884205D0FFE702983749884213
:1022B0000AD1FFE700987021884300900198416897
:1022C000009808430090FFE702982F4988421FD0EA
:1022D000FFE7029801218907884219D0FFE7029899
:1022E0002A49884214D0FFE70298294988420FD032
:1022F000FFE70298274988420AD0FFE7029826495B
:10230000884205D0FFE70298244988420BD1FFE7B5
:10231000009803210902884300900198C168009841
:1023200008430090FFE7009880218843019949699C
:10233000084300900098029908600198806802990B
:10234000C862019800680299886202980E49884222
:102350000FD0FFE702980F4988420AD0FFE70298A2
:102360000D49884205D0FFE702980C49884205D103
:10237000FFE70198006902990863FFE702990120CD
:10238000486103B07047C046002C01400004004083
:10239000002000400040014000440140004801404E
:1023A00085B0049003910292019304988068009094
:1023B0000098FF2109028843009003990298019A2E
:1023C00012021043014300980843009000980499BA
:1023D000886005B0704783B00290019102988068D0
:1023E000009000987021884300900198009908435C
:1023F00007210843009000980299886003B0704755
:1024000085B00490039102920498006A00900499A8
:10241000086A01229043086204988069019001983B
:10242000F02188430190029801010198084301902E
:1024300000980A218843009003990098084300906F
:1024400001980499886100980499086205B0704762
:1024500085B00490039102920499086A1022904377
:1024600008620498806901900498006A00900198BD
:102470000F21090388430190029801030198084342
:1024800001900098A02188430090039801010098D2
:1024900008430090019804998861009804990862A3
:1024A00005B0704781B00146684601700021405672
:1024B000002809D4FFE7684601781F200140012069
:1024C000884002490860FFE701B0704700E100E082
:1024D00070B582B0024601A80270009100214056FA
:1024E000002816D4FFE7002401A908570322D3438C
:1024F0001840174A805809578C07E50EFF24AC4056
:10250000A043009CA401E4B2AC4020431940885091
:102510001AE001A908780F24204008380322D34389
:1025200018400A4A8058002549578D07EE0EFF25AE
:10253000B540A843009DAD01EDB2B5402843214010
:10254000083919408850FFE702B070BD1CED00E06B
:1025500000E400E082B001A9087068460022027021
:102560000A7813090A2159430F231A408918017068
:10257000007802B0704780B582B0014601A80170B2
:102580006A460021117000780A280ADBFFE701A8DB
:1025900000780A21FDF7C0FE000108436946087073
:1025A00003E0019869460870FFE76846007802B0CA
:1025B00080BD000080B5FEF710F82E490870FDF7C9
:1025C000CDFF2A49087080BD80B582B000200190FF
:1025D000FEF75AFAFFF77EFDFFF704FCFFF7D2FC87
:1025E000FFF70CFDFFF792FC0948FFF77FF8094859
:1025F000FFF77CF80848FFF779F807201021FDF76E
:1026000094FFFFF7D7FFFFE700F008F8FCE7C046AC
:10261000C0000020080100207800002080B584B0B0
:102620001248009000780A210191FDF775FE01998A
:10263000024600980E4B03931A700078FDF76CFE6B
:10264000039A0846019950700A4802900078FDF7F5
:1026500063FE0199039B024602989A700078FDF789
:102660005BFE0398C17004B080BDC04676000020B8
:102670007200002050010020000000000000000057
:1026800001020304060708090203040506070809F6
:102690000A0B0C0D0E0F10100102030405060708AB
:1026A000090A0B0C0D0E0F10C000F900A400B000B9
:1026B000990092008200F80080009000880083005A
:1026C000C600A10086008E00E82600080000002059
:1026D0001000000000010008F8260008100000208B
:1026E000480700001C01000800127A0001000000E9
:0826F0000400000000000000DE
:04000005080000BD32
:00000001FF
